{
  "_format": "hh-sol-artifact-1",
  "contractName": "DynamicVestingEscrow",
  "sourceName": "contracts/DynamicVestingEscrow.sol",
  "abi": [
    {
      "inputs": [
        {
          "internalType": "address",
          "name": "_token",
          "type": "address"
        },
        {
          "internalType": "address",
          "name": "_safeAddress",
          "type": "address"
        }
      ],
      "stateMutability": "nonpayable",
      "type": "constructor"
    },
    {
      "anonymous": false,
      "inputs": [
        {
          "indexed": true,
          "internalType": "address",
          "name": "previousOwner",
          "type": "address"
        },
        {
          "indexed": true,
          "internalType": "address",
          "name": "newOwner",
          "type": "address"
        }
      ],
      "name": "OwnershipTransferred",
      "type": "event"
    },
    {
      "inputs": [],
      "name": "ALLOW_PAST_START_TIME",
      "outputs": [
        {
          "internalType": "bool",
          "name": "",
          "type": "bool"
        }
      ],
      "stateMutability": "view",
      "type": "function"
    },
    {
      "inputs": [],
      "name": "ESCROW_TERMINATED",
      "outputs": [
        {
          "internalType": "bool",
          "name": "",
          "type": "bool"
        }
      ],
      "stateMutability": "view",
      "type": "function"
    },
    {
      "inputs": [],
      "name": "ESCROW_TERMINATED_AT",
      "outputs": [
        {
          "internalType": "uint256",
          "name": "",
          "type": "uint256"
        }
      ],
      "stateMutability": "view",
      "type": "function"
    },
    {
      "inputs": [],
      "name": "SAFE_ADDRESS",
      "outputs": [
        {
          "internalType": "address",
          "name": "",
          "type": "address"
        }
      ],
      "stateMutability": "view",
      "type": "function"
    },
    {
      "inputs": [
        {
          "internalType": "address[]",
          "name": "_recipients",
          "type": "address[]"
        },
        {
          "internalType": "uint256[]",
          "name": "_amounts",
          "type": "uint256[]"
        },
        {
          "internalType": "uint256[]",
          "name": "_startTimes",
          "type": "uint256[]"
        },
        {
          "internalType": "uint256[]",
          "name": "_endTimes",
          "type": "uint256[]"
        },
        {
          "internalType": "uint256[]",
          "name": "_cliffDurations",
          "type": "uint256[]"
        },
        {
          "internalType": "uint256",
          "name": "_totalAmount",
          "type": "uint256"
        }
      ],
      "name": "addRecipients",
      "outputs": [],
      "stateMutability": "nonpayable",
      "type": "function"
    },
    {
      "inputs": [
        {
          "internalType": "address[]",
          "name": "_recipients",
          "type": "address[]"
        }
      ],
      "name": "batchTotalLockedOf",
      "outputs": [
        {
          "internalType": "uint256",
          "name": "totalAmount",
          "type": "uint256"
        }
      ],
      "stateMutability": "view",
      "type": "function"
    },
    {
      "inputs": [
        {
          "internalType": "address[]",
          "name": "_recipients",
          "type": "address[]"
        }
      ],
      "name": "batchTotalVestedOf",
      "outputs": [
        {
          "internalType": "uint256",
          "name": "totalAmount",
          "type": "uint256"
        }
      ],
      "stateMutability": "view",
      "type": "function"
    },
    {
      "inputs": [
        {
          "internalType": "address",
          "name": "recipient",
          "type": "address"
        }
      ],
      "name": "canClaim",
      "outputs": [
        {
          "internalType": "bool",
          "name": "",
          "type": "bool"
        }
      ],
      "stateMutability": "view",
      "type": "function"
    },
    {
      "inputs": [
        {
          "internalType": "uint256",
          "name": "amount",
          "type": "uint256"
        }
      ],
      "name": "claim",
      "outputs": [],
      "stateMutability": "nonpayable",
      "type": "function"
    },
    {
      "inputs": [
        {
          "internalType": "address",
          "name": "recipient",
          "type": "address"
        }
      ],
      "name": "claimStartTimeFor",
      "outputs": [
        {
          "internalType": "uint256",
          "name": "",
          "type": "uint256"
        }
      ],
      "stateMutability": "view",
      "type": "function"
    },
    {
      "inputs": [
        {
          "internalType": "address",
          "name": "recipient",
          "type": "address"
        }
      ],
      "name": "claimableAmountFor",
      "outputs": [
        {
          "internalType": "uint256",
          "name": "",
          "type": "uint256"
        }
      ],
      "stateMutability": "view",
      "type": "function"
    },
    {
      "inputs": [],
      "name": "dust",
      "outputs": [
        {
          "internalType": "uint256",
          "name": "",
          "type": "uint256"
        }
      ],
      "stateMutability": "view",
      "type": "function"
    },
    {
      "inputs": [
        {
          "internalType": "address",
          "name": "asset",
          "type": "address"
        },
        {
          "internalType": "address",
          "name": "to",
          "type": "address"
        }
      ],
      "name": "inCaseAssetGetStuck",
      "outputs": [
        {
          "internalType": "uint256",
          "name": "rescued",
          "type": "uint256"
        }
      ],
      "stateMutability": "nonpayable",
      "type": "function"
    },
    {
      "inputs": [
        {
          "internalType": "address",
          "name": "",
          "type": "address"
        }
      ],
      "name": "lockedTokensSeizedFor",
      "outputs": [
        {
          "internalType": "bool",
          "name": "",
          "type": "bool"
        }
      ],
      "stateMutability": "view",
      "type": "function"
    },
    {
      "inputs": [],
      "name": "owner",
      "outputs": [
        {
          "internalType": "address",
          "name": "",
          "type": "address"
        }
      ],
      "stateMutability": "view",
      "type": "function"
    },
    {
      "inputs": [
        {
          "internalType": "address",
          "name": "recipient",
          "type": "address"
        }
      ],
      "name": "pauseRecipient",
      "outputs": [],
      "stateMutability": "nonpayable",
      "type": "function"
    },
    {
      "inputs": [
        {
          "internalType": "address",
          "name": "",
          "type": "address"
        }
      ],
      "name": "recipients",
      "outputs": [
        {
          "internalType": "uint256",
          "name": "startTime",
          "type": "uint256"
        },
        {
          "internalType": "uint256",
          "name": "endTime",
          "type": "uint256"
        },
        {
          "internalType": "uint256",
          "name": "cliffDuration",
          "type": "uint256"
        },
        {
          "internalType": "uint256",
          "name": "lastPausedAt",
          "type": "uint256"
        },
        {
          "internalType": "uint256",
          "name": "vestingPerSec",
          "type": "uint256"
        },
        {
          "internalType": "uint256",
          "name": "totalVestingAmount",
          "type": "uint256"
        },
        {
          "internalType": "uint256",
          "name": "totalClaimed",
          "type": "uint256"
        },
        {
          "internalType": "enum DynamicVestingEscrow.Status",
          "name": "recipientVestingStatus",
          "type": "uint8"
        }
      ],
      "stateMutability": "view",
      "type": "function"
    },
    {
      "inputs": [],
      "name": "renounceOwnership",
      "outputs": [],
      "stateMutability": "nonpayable",
      "type": "function"
    },
    {
      "inputs": [
        {
          "internalType": "address[]",
          "name": "_recipients",
          "type": "address[]"
        }
      ],
      "name": "seizeLockedTokens",
      "outputs": [
        {
          "internalType": "uint256",
          "name": "totalSeized",
          "type": "uint256"
        }
      ],
      "stateMutability": "nonpayable",
      "type": "function"
    },
    {
      "inputs": [
        {
          "internalType": "address",
          "name": "recipient",
          "type": "address"
        }
      ],
      "name": "terminateRecipient",
      "outputs": [],
      "stateMutability": "nonpayable",
      "type": "function"
    },
    {
      "inputs": [],
      "name": "terminateVestingEscrow",
      "outputs": [],
      "stateMutability": "nonpayable",
      "type": "function"
    },
    {
      "inputs": [],
      "name": "token",
      "outputs": [
        {
          "internalType": "address",
          "name": "",
          "type": "address"
        }
      ],
      "stateMutability": "view",
      "type": "function"
    },
    {
      "inputs": [],
      "name": "totalAllocatedSupply",
      "outputs": [
        {
          "internalType": "uint256",
          "name": "",
          "type": "uint256"
        }
      ],
      "stateMutability": "view",
      "type": "function"
    },
    {
      "inputs": [],
      "name": "totalClaimed",
      "outputs": [
        {
          "internalType": "uint256",
          "name": "",
          "type": "uint256"
        }
      ],
      "stateMutability": "view",
      "type": "function"
    },
    {
      "inputs": [
        {
          "internalType": "address",
          "name": "recipient",
          "type": "address"
        }
      ],
      "name": "totalLockedOf",
      "outputs": [
        {
          "internalType": "uint256",
          "name": "_totalLockedOf",
          "type": "uint256"
        }
      ],
      "stateMutability": "view",
      "type": "function"
    },
    {
      "inputs": [
        {
          "internalType": "address",
          "name": "recipient",
          "type": "address"
        }
      ],
      "name": "totalVestedOf",
      "outputs": [
        {
          "internalType": "uint256",
          "name": "",
          "type": "uint256"
        }
      ],
      "stateMutability": "view",
      "type": "function"
    },
    {
      "inputs": [],
      "name": "transferDust",
      "outputs": [
        {
          "internalType": "uint256",
          "name": "",
          "type": "uint256"
        }
      ],
      "stateMutability": "nonpayable",
      "type": "function"
    },
    {
      "inputs": [
        {
          "internalType": "address",
          "name": "newOwner",
          "type": "address"
        }
      ],
      "name": "transferOwnership",
      "outputs": [],
      "stateMutability": "nonpayable",
      "type": "function"
    },
    {
      "inputs": [
        {
          "internalType": "address",
          "name": "recipient",
          "type": "address"
        }
      ],
      "name": "unPauseRecipient",
      "outputs": [],
      "stateMutability": "nonpayable",
      "type": "function"
    },
    {
      "inputs": [
        {
          "internalType": "address",
          "name": "safeAddress",
          "type": "address"
        }
      ],
      "name": "updateSafeAddress",
      "outputs": [],
      "stateMutability": "nonpayable",
      "type": "function"
    }
  ],
  "bytecode": "0x60a06040526007805461ffff60a01b191690553480156200001f57600080fd5b506040516200306f3803806200306f83398101604081905262000042916200014a565b60006200004e62000129565b600080546001600160a01b0319166001600160a01b0383169081178255604051929350917f8be0079c531659141344cd1fd0a4f28419497f9722a3daafe3b4186f6b6457e0908290a3506001600160a01b038116620000ca5760405162461bcd60e51b8152600401620000c19062000181565b60405180910390fd5b6001600160a01b038216620000f35760405162461bcd60e51b8152600401620000c190620001ce565b600780546001600160a01b0319166001600160a01b039290921691909117905560601b6001600160601b03191660805262000214565b3390565b80516001600160a01b03811681146200014557600080fd5b919050565b600080604083850312156200015d578182fd5b62000168836200012d565b915062000178602084016200012d565b90509250929050565b6020808252602d908201527f636f6e7374727563746f723a20534146455f414444524553532063616e6e6f7460408201526c2062652030206164647265737360981b606082015260800190565b60208082526026908201527f636f6e7374727563746f723a20746f6b656e2063616e6e6f742062652030206160408201526564647265737360d01b606082015260800190565b60805160601c612e126200025d600039600081816105300152818161081f01528181610df9015281816113bb0152818161187401528181611dab0152611eb40152612e126000f3fe608060405234801561001057600080fd5b50600436106101da5760003560e01c8063913f9d9111610104578063bf3506c1116100a2578063eb82031211610071578063eb82031214610391578063f2fde38b146103b8578063fad9aba3146103cb578063fc0c546a146103d3576101da565b8063bf3506c114610350578063d54ad2a114610363578063dcec2dbf1461036b578063de0fe86c1461037e576101da565b8063a2c77d48116100de578063a2c77d481461030f578063ae07797814610322578063b1faa3c814610335578063b21c1b5014610348576101da565b8063913f9d91146102e15780639561ecd0146102f45780639f6c9fdc146102fc576101da565b80634bed21391161017c57806385d38f801161014b57806385d38f80146102a95780638a80e970146102be5780638da5cb5b146102d15780638fcd3695146102d9576101da565b80634bed2139146102735780634d7c9434146102865780635177aee714610299578063715018a6146102a1576101da565b806333ad49bf116101b857806333ad49bf14610225578063379607f51461023a57806345d95ded1461024d5780634a48d41714610260576101da565b806306a78f0b146101df578063219172db146101f457806329dfded614610212575b600080fd5b6101f26101ed366004612186565b6103db565b005b6101fc61057f565b6040516102099190612c91565b60405180910390f35b6101fc610220366004612186565b610585565b61022d610667565b6040516102099190612487565b6101f26102483660046123ea565b610677565b6101fc61025b3660046121d2565b610684565b6101f261026e366004612186565b61084e565b6101f2610281366004612186565b6109ee565b6101fc610294366004612186565b610b0f565b6101fc610c7a565b6101f2610c80565b6102b1610d09565b6040516102099190612436565b6101f26102cc366004612212565b610d18565b6102b1611348565b6101fc611358565b6101fc6102ef366004612186565b6113f1565b61022d611546565b6101fc61030a366004612186565b611556565b6101fc61031d366004612309565b6117b7565b6101fc6103303660046121a0565b61180b565b6101f2610343366004612186565b61197c565b6101f2611a2d565b61022d61035e366004612186565b611aaf565b6101fc611c2d565b61022d610379366004612186565b611c33565b6101fc61038c366004612309565b611c48565b6103a461039f366004612186565b611c9c565b604051610209989796959493929190612c9a565b6101f26103c6366004612186565b611ce3565b6101fc611da3565b6102b1611da9565b6103e3611dcd565b6001600160a01b03166103f4611348565b6001600160a01b0316146104235760405162461bcd60e51b815260040161041a906129ba565b60405180910390fd5b600754600160a81b900460ff161561044d5760405162461bcd60e51b815260040161041a90612ada565b806001600160a01b0381166104745760405162461bcd60e51b815260040161041a90612c25565b6001600160a01b03821660009081526001602052604081206007015460ff1660028111156104b257634e487b7160e01b600052602160045260246000fd5b14156104d05760405162461bcd60e51b815260040161041a9061250f565b6104d982611aaf565b156104f0576104f06104ea83610b0f565b83611dd1565b6001600160a01b0382166000908152600160205260408120600681015460059091015461051c91611ee1565b600754909150610559906001600160a01b037f00000000000000000000000000000000000000000000000000000000000000008116911683611ef4565b50506001600160a01b03166000908152600160205260409020600701805460ff19169055565b60055481565b600754600090600160a81b900460ff16156105b25760405162461bcd60e51b815260040161041a90612ada565b816001600160a01b0381166105d95760405162461bcd60e51b815260040161041a90612983565b60026001600160a01b03821660009081526001602052604090206007015460ff16600281111561061957634e487b7160e01b600052602160045260246000fd5b146106365760405162461bcd60e51b815260040161041a906125a6565b6001600160a01b03831660009081526001602052604090206002810154905461065e91611f4f565b91505b50919050565b600754600160a01b900460ff1681565b6106818133611dd1565b50565b600061068e611dcd565b6001600160a01b031661069f611348565b6001600160a01b0316146106c55760405162461bcd60e51b815260040161041a906129ba565b600754600160a81b900460ff166106ee5760405162461bcd60e51b815260040161041a906125fa565b60005b8281101561080d576002600085858481811061071d57634e487b7160e01b600052603260045260246000fd5b90506020020160208101906107329190612186565b6001600160a01b0316815260208101919091526040016000205460ff166107fb5761079561078e85858481811061077957634e487b7160e01b600052603260045260246000fd5b905060200201602081019061030a9190612186565b8390611f4f565b91506001600260008686858181106107bd57634e487b7160e01b600052603260045260246000fd5b90506020020160208101906107d29190612186565b6001600160a01b031681526020810191909152604001600020805460ff19169115159190911790555b8061080581612d95565b9150506106f1565b50600754610848906001600160a01b037f00000000000000000000000000000000000000000000000000000000000000008116911683611ef4565b92915050565b610856611dcd565b6001600160a01b0316610867611348565b6001600160a01b03161461088d5760405162461bcd60e51b815260040161041a906129ba565b600754600160a81b900460ff16156108b75760405162461bcd60e51b815260040161041a90612ada565b806001600160a01b0381166108de5760405162461bcd60e51b815260040161041a90612c25565b60016001600160a01b03831660009081526001602052604090206007015460ff16600281111561091e57634e487b7160e01b600052602160045260246000fd5b1461093b5760405162461bcd60e51b815260040161041a90612c5c565b6001600160a01b038216600090815260016020526040812060078101805460ff1916600217905560030154610971904290611ee1565b6001600160a01b03841660009081526001602052604090206002015490915061099a9082611f4f565b6001600160a01b0384166000908152600160208190526040909120600281019290925501546109c99082611f4f565b6001600160a01b03909316600090815260016020819052604090912001929092555050565b6109f6611dcd565b6001600160a01b0316610a07611348565b6001600160a01b031614610a2d5760405162461bcd60e51b815260040161041a906129ba565b600754600160a81b900460ff1615610a575760405162461bcd60e51b815260040161041a90612ada565b806001600160a01b038116610a7e5760405162461bcd60e51b815260040161041a90612c25565b60026001600160a01b03831660009081526001602052604090206007015460ff166002811115610abe57634e487b7160e01b600052602160045260246000fd5b14610adb5760405162461bcd60e51b815260040161041a906128e0565b506001600160a01b0316600090815260016020819052604090912060078101805460ff191690921790915542600390910155565b6000816001600160a01b038116610b385760405162461bcd60e51b815260040161041a90612b98565b6001600160a01b03811660009081526001602052604081206007015460ff166002811115610b7657634e487b7160e01b600052602160045260246000fd5b1415610b945760405162461bcd60e51b815260040161041a9061284d565b6001600160a01b0383166000908152600160208181526040808420815161010081018352815481529381015492840192909252600280830154918401919091526003820154606084015260048201546080840152600582015460a0840152600682015460c0840152600782015460e084019160ff90911690811115610c2957634e487b7160e01b600052602160045260246000fd5b6002811115610c4857634e487b7160e01b600052602160045260246000fd5b9052509050610c72610c67610c5c86611556565b60c084015190611f4f565b60a083015190611ee1565b949350505050565b60065481565b610c88611dcd565b6001600160a01b0316610c99611348565b6001600160a01b031614610cbf5760405162461bcd60e51b815260040161041a906129ba565b600080546040516001600160a01b03909116907f8be0079c531659141344cd1fd0a4f28419497f9722a3daafe3b4186f6b6457e0908390a3600080546001600160a01b0319169055565b6007546001600160a01b031681565b610d20611dcd565b6001600160a01b0316610d31611348565b6001600160a01b031614610d575760405162461bcd60e51b815260040161041a906129ba565b600754600160a81b900460ff1615610d815760405162461bcd60e51b815260040161041a90612ada565b8988148015610d8f57508786145b8015610d9a57508584145b8015610da557508382145b8015610db057508915155b610dcc5760405162461bcd60e51b815260040161041a9061294c565b60008111610dec5760405162461bcd60e51b815260040161041a906127b4565b610e216001600160a01b037f000000000000000000000000000000000000000000000000000000000000000016333084611f5b565b8060005b898110156113105760008d8d83818110610e4f57634e487b7160e01b600052603260045260246000fd5b9050602002016020810190610e649190612186565b6001600160a01b03161415610e8b5760405162461bcd60e51b815260040161041a90612642565b600754600160a01b900460ff1680610ec9575042898983818110610ebf57634e487b7160e01b600052603260045260246000fd5b9050602002013510155b610ee55760405162461bcd60e51b815260040161041a90612917565b888882818110610f0557634e487b7160e01b600052603260045260246000fd5b90506020020135878783818110610f2c57634e487b7160e01b600052603260045260246000fd5b9050602002013511610f505760405162461bcd60e51b815260040161041a90612764565b610faf898983818110610f7357634e487b7160e01b600052603260045260246000fd5b90506020020135888884818110610f9a57634e487b7160e01b600052603260045260246000fd5b90506020020135611ee190919063ffffffff16565b858583818110610fcf57634e487b7160e01b600052603260045260246000fd5b9050602002013510610ff35760405162461bcd60e51b815260040161041a9061271f565b60008b8b8381811061101557634e487b7160e01b600052603260045260246000fd5b90506020020135116110395760405162461bcd60e51b815260040161041a90612a3c565b6040518061010001604052808a8a8481811061106557634e487b7160e01b600052603260045260246000fd5b90506020020135815260200188888481811061109157634e487b7160e01b600052603260045260246000fd5b9050602002013581526020018686848181106110bd57634e487b7160e01b600052603260045260246000fd5b9050602002013581526020016000815260200161118a6111556111358989878181106110f957634e487b7160e01b600052603260045260246000fd5b905060200201358e8e8881811061112057634e487b7160e01b600052603260045260246000fd5b90506020020135611f4f90919063ffffffff16565b8b8b87818110610f9a57634e487b7160e01b600052603260045260246000fd5b8e8e8681811061117557634e487b7160e01b600052603260045260246000fd5b90506020020135611f7c90919063ffffffff16565b81526020018c8c848181106111af57634e487b7160e01b600052603260045260246000fd5b905060200201358152602001600081526020016002808111156111e257634e487b7160e01b600052602160045260246000fd5b9052600160008f8f8581811061120857634e487b7160e01b600052603260045260246000fd5b905060200201602081019061121d9190612186565b6001600160a01b03166001600160a01b03168152602001908152602001600020600082015181600001556020820151816001015560408201518160020155606082015181600301556080820151816004015560a0820151816005015560c0820151816006015560e08201518160070160006101000a81548160ff021916908360028111156112bb57634e487b7160e01b600052602160045260246000fd5b02179055509050506112fc8b8b838181106112e657634e487b7160e01b600052603260045260246000fd5b9050602002013584611ee190919063ffffffff16565b92508061130881612d95565b915050610e25565b5061132761131e8284611ee1565b60055490611f4f565b6005556003546113379083611f4f565b600355505050505050505050505050565b6000546001600160a01b03165b90565b6000611362611dcd565b6001600160a01b0316611373611348565b6001600160a01b0316146113995760405162461bcd60e51b815260040161041a906129ba565b600354156113eb576003805460009091556007546113e4906001600160a01b037f00000000000000000000000000000000000000000000000000000000000000008116911683611ef4565b9050611355565b50600090565b6000816001600160a01b03811661141a5760405162461bcd60e51b815260040161041a90612b98565b6001600160a01b03811660009081526001602052604081206007015460ff16600281111561145857634e487b7160e01b600052602160045260246000fd5b14156114765760405162461bcd60e51b815260040161041a9061284d565b6001600160a01b0383166000908152600160208181526040808420815161010081018352815481529381015492840192909252600280830154918401919091526003820154606084015260048201546080840152600582015460a0840152600682015460c0840152600782015460e084019160ff9091169081111561150b57634e487b7160e01b600052602160045260246000fd5b600281111561152a57634e487b7160e01b600052602160045260246000fd5b9052509050610c7261153b85610b0f565b60c083015190611f4f565b600754600160a81b900460ff1681565b6000816001600160a01b03811661157f5760405162461bcd60e51b815260040161041a90612b98565b6001600160a01b03811660009081526001602052604081206007015460ff1660028111156115bd57634e487b7160e01b600052602160045260246000fd5b14156115db5760405162461bcd60e51b815260040161041a9061284d565b6001600160a01b0383166000908152600160208181526040808420815161010081018352815481529381015492840192909252600280830154918401919091526003820154606084015260048201546080840152600582015460a0840152600682015460c0840152600782015460e084019160ff9091169081111561167057634e487b7160e01b600052602160045260246000fd5b600281111561168f57634e487b7160e01b600052602160045260246000fd5b905250905060018160e0015160028111156116ba57634e487b7160e01b600052602160045260246000fd5b14156117195780602001518160600151106116d55750610661565b60608101516040820151825161171192611706926116fb926116f691611f4f565b611f88565b602084015190611ee1565b608083015190611f9f565b925050610661565b8060200151421061172e576000925050610661565b600754600160a81b900460ff161561175f576006546040820151825161171192611706926116fb926116f691611f4f565b60028160e00151600281111561178557634e487b7160e01b600052602160045260246000fd5b14156117b0576117116117066116fb426116f685604001518660000151611f4f90919063ffffffff16565b5050919050565b6000805b8251811015610661576117f761078e8483815181106117ea57634e487b7160e01b600052603260045260246000fd5b60200260200101516113f1565b91508061180381612d95565b9150506117bb565b6000611815611dcd565b6001600160a01b0316611826611348565b6001600160a01b03161461184c5760405162461bcd60e51b815260040161041a906129ba565b6001600160a01b0383166118725760405162461bcd60e51b815260040161041a906127ff565b7f00000000000000000000000000000000000000000000000000000000000000006001600160a01b0316836001600160a01b031614156118c45760405162461bcd60e51b815260040161041a906124c5565b6001600160a01b0382166118ea5760405162461bcd60e51b815260040161041a9061268e565b6040516370a0823160e01b81526001600160a01b038416906370a0823190611916903090600401612436565b60206040518083038186803b15801561192e57600080fd5b505afa158015611942573d6000803e3d6000fd5b505050506040513d601f19601f820116820180604052508101906119669190612402565b90506108486001600160a01b0384168383611ef4565b611984611dcd565b6001600160a01b0316611995611348565b6001600160a01b0316146119bb5760405162461bcd60e51b815260040161041a906129ba565b600754600160a81b900460ff16156119e55760405162461bcd60e51b815260040161041a90612ada565b6001600160a01b038116611a0b5760405162461bcd60e51b815260040161041a90612553565b600780546001600160a01b0319166001600160a01b0392909216919091179055565b611a35611dcd565b6001600160a01b0316611a46611348565b6001600160a01b031614611a6c5760405162461bcd60e51b815260040161041a906129ba565b600754600160a81b900460ff1615611a965760405162461bcd60e51b815260040161041a90612ada565b6007805460ff60a81b1916600160a81b17905542600655565b6000816001600160a01b038116611ad85760405162461bcd60e51b815260040161041a90612c25565b6001600160a01b0383166000908152600160208181526040808420815161010081018352815481529381015492840192909252600280830154918401919091526003820154606084015260048201546080840152600582015460a0840152600682015460c0840152600782015460e084019160ff90911690811115611b6d57634e487b7160e01b600052602160045260246000fd5b6002811115611b8c57634e487b7160e01b600052602160045260246000fd5b905250905060008160e001516002811115611bb757634e487b7160e01b600052602160045260246000fd5b1415611bc7576000925050610661565b60018160e001516002811115611bed57634e487b7160e01b600052602160045260246000fd5b1415611c125760408101518151611c0391611f4f565b81606001511015925050610661565b60408101518151611c2291611f4f565b421015949350505050565b60045481565b60026020526000908152604090205460ff1681565b6000805b825181101561066157611c8861078e848381518110611c7b57634e487b7160e01b600052603260045260246000fd5b6020026020010151611556565b915080611c9481612d95565b915050611c4c565b600160208190526000918252604090912080549181015460028201546003830154600484015460058501546006860154600790960154949593949293919290919060ff1688565b611ceb611dcd565b6001600160a01b0316611cfc611348565b6001600160a01b031614611d225760405162461bcd60e51b815260040161041a906129ba565b6001600160a01b038116611d485760405162461bcd60e51b815260040161041a906126d9565b600080546040516001600160a01b03808516939216917f8be0079c531659141344cd1fd0a4f28419497f9722a3daafe3b4186f6b6457e091a3600080546001600160a01b0319166001600160a01b0392909216919091179055565b60035481565b7f000000000000000000000000000000000000000000000000000000000000000081565b3390565b6001600160a01b0381166000908152600160205260409020611df282611aaf565b611e0e5760405162461bcd60e51b815260040161041a90612b20565b6000611e1983610b0f565b905080841115611e3b5760405162461bcd60e51b815260040161041a9061289b565b6006820154611e4a9085611f4f565b6006830181905560058301541015611e745760405162461bcd60e51b815260040161041a906129ef565b600454611e819085611f4f565b60048190556005541015611ea75760405162461bcd60e51b815260040161041a90612a85565b611edb6001600160a01b037f0000000000000000000000000000000000000000000000000000000000000000168486611ef4565b50505050565b6000611eed8284612d52565b9392505050565b611f4a8363a9059cbb60e01b8484604051602401611f1392919061246e565b60408051601f198184030181529190526020810180516001600160e01b03166001600160e01b031990931692909217909152611fab565b505050565b6000611eed8284612cfb565b611edb846323b872dd60e01b858585604051602401611f139392919061244a565b6000611eed8284612d13565b600081831015611f985781611eed565b5090919050565b6000611eed8284612d33565b6000612000826040518060400160405280602081526020017f5361666545524332303a206c6f772d6c6576656c2063616c6c206661696c6564815250856001600160a01b031661203a9092919063ffffffff16565b805190915015611f4a578080602001905181019061201e91906123ca565b611f4a5760405162461bcd60e51b815260040161041a90612bdb565b6060610c7284846000858561204e856120e3565b61206a5760405162461bcd60e51b815260040161041a90612b61565b600080866001600160a01b03168587604051612086919061241a565b60006040518083038185875af1925050503d80600081146120c3576040519150601f19603f3d011682016040523d82523d6000602084013e6120c8565b606091505b50915091506120d88282866120ed565b979650505050505050565b803b15155b919050565b606083156120fc575081611eed565b82511561210c5782518084602001fd5b8160405162461bcd60e51b815260040161041a9190612492565b80356001600160a01b03811681146120e857600080fd5b60008083601f84011261214e578081fd5b50813567ffffffffffffffff811115612165578182fd5b602083019150836020808302850101111561217f57600080fd5b9250929050565b600060208284031215612197578081fd5b611eed82612126565b600080604083850312156121b2578081fd5b6121bb83612126565b91506121c960208401612126565b90509250929050565b600080602083850312156121e4578182fd5b823567ffffffffffffffff8111156121fa578283fd5b6122068582860161213d565b90969095509350505050565b600080600080600080600080600080600060c08c8e031215612232578687fd5b67ffffffffffffffff808d351115612248578788fd5b6122558e8e358f0161213d565b909c509a5060208d013581101561226a578788fd5b61227a8e60208f01358f0161213d565b909a50985060408d013581101561228f578788fd5b61229f8e60408f01358f0161213d565b909850965060608d01358110156122b4578586fd5b6122c48e60608f01358f0161213d565b909650945060808d01358110156122d9578384fd5b506122ea8d60808e01358e0161213d565b819450809350505060a08c013590509295989b509295989b9093969950565b6000602080838503121561231b578182fd5b823567ffffffffffffffff80821115612332578384fd5b818501915085601f830112612345578384fd5b81358181111561235757612357612dc6565b8381026040518582820101818110858211171561237657612376612dc6565b604052828152858101935084860182860187018a1015612394578788fd5b8795505b838610156123bd576123a981612126565b855260019590950194938601938601612398565b5098975050505050505050565b6000602082840312156123db578081fd5b81518015158114611eed578182fd5b6000602082840312156123fb578081fd5b5035919050565b600060208284031215612413578081fd5b5051919050565b6000825161242c818460208701612d69565b9190910192915050565b6001600160a01b0391909116815260200190565b6001600160a01b039384168152919092166020820152604081019190915260600190565b6001600160a01b03929092168252602082015260400190565b901515815260200190565b60006020825282518060208401526124b1816040850160208701612d69565b601f01601f19169190910160400192915050565b6020808252602a908201527f696e436173654173736574476574537475636b3a2063616e6e6f742077697468604082015269323930bb903a37b5b2b760b11b606082015260800190565b60208082526024908201527f7465726d696e617465526563697069656e743a2063616e6e6f74207465726d696040820152636e61746560e01b606082015260800190565b60208082526033908201527f75706461746553616665416464726573733a20534146455f414444524553532060408201527263616e6e6f742062652030206164647265737360681b606082015260800190565b60208082526034908201527f726563697069656e744973556e7061757365643a20726563697069656e74204e6040820152734f5420696e20556e50617573656420737461746560601b606082015260800190565b60208082526028908201527f7365697a654c6f636b6564546f6b656e733a20657363726f77206e6f742074656040820152671c9b5a5b985d195960c21b606082015260800190565b6020808252602c908201527f616464526563697069656e74733a20726563697069656e742063616e6e6f742060408201526b62652030206164647265737360a01b606082015260800190565b6020808252602b908201527f696e436173654173736574476574537475636b3a20746f2063616e6e6f74206260408201526a652030206164647265737360a81b606082015260800190565b60208082526026908201527f4f776e61626c653a206e6577206f776e657220697320746865207a65726f206160408201526564647265737360d01b606082015260800190565b60208082526025908201527f616464526563697069656e74733a20636c6966664475726174696f6e20746f6f604082015264206c6f6e6760d81b606082015260800190565b60208082526030908201527f616464526563697069656e74733a20656e6454696d652073686f756c6420626560408201526f20616674657220737461727454696d6560801b606082015260800190565b6020808252602b908201527f616464526563697069656e74733a207a65726f20746f74616c416d6f756e742060408201526a1b9bdd08185b1b1bddd95960aa1b606082015260800190565b6020808252602e908201527f696e436173654173736574476574537475636b3a2061737365742063616e6e6f60408201526d742062652030206164647265737360901b606082015260800190565b6020808252602e908201527f726563697069656e7449734e6f745465726d696e617465643a2072656369706960408201526d195b9d081d195c9b5a5b985d195960921b606082015260800190565b60208082526025908201527f5f636c61696d466f723a2063616e6e6f7420636c61696d2070617373656420616040820152641b5bdd5b9d60da1b606082015260800190565b6020808252601c908201527f7061757365526563697069656e743a2063616e6e6f7420706175736500000000604082015260600190565b6020808252818101527f616464526563697069656e74733a20696e76616c696420737461727454696d65604082015260600190565b6020808252601d908201527f616464526563697069656e74733a20696e76616c696420706172616d73000000604082015260600190565b6020808252601e908201527f726563697069656e744973556e7061757365643a203020616464726573730000604082015260600190565b6020808252818101527f4f776e61626c653a2063616c6c6572206973206e6f7420746865206f776e6572604082015260600190565b6020808252602d908201527f5f636c61696d466f723a2063616e6e6f7420636c61696d206d6f72652074686160408201526c6e20796f75206465736572766560981b606082015260800190565b60208082526029908201527f616464526563697069656e74733a2076657374696e6720616d6f756e7420636160408201526806e6e6f7420626520360bc1b606082015260800190565b60208082526035908201527f5f636c61696d466f723a2063616e6e6f7420636c61696d206d6f7265207468616040820152746e20616c6c6f636174656420746f20657363726f7760581b606082015260800190565b60208082526026908201527f657363726f774e6f745465726d696e617465643a20657363726f77207465726d6040820152651a5b985d195960d21b606082015260800190565b60208082526021908201527f5f636c61696d466f723a20726563697069656e742063616e6e6f7420636c61696040820152606d60f81b606082015260800190565b6020808252601d908201527f416464726573733a2063616c6c20746f206e6f6e2d636f6e7472616374000000604082015260600190565b60208082526023908201527f726563697069656e7449734e6f745465726d696e617465643a2030206164647260408201526265737360e81b606082015260800190565b6020808252602a908201527f5361666545524332303a204552433230206f7065726174696f6e20646964206e6040820152691bdd081cdd58d8d9595960b21b606082015260800190565b6020808252601b908201527f69734e6f6e5a65726f416464726573733a203020616464726573730000000000604082015260600190565b6020808252818101527f756e5061757365526563697069656e743a2063616e6e6f7420756e7061757365604082015260600190565b90815260200190565b6000610100820190508982528860208301528760408301528660608301528560808301528460a08301528360c083015260038310612ce857634e487b7160e01b600052602160045260246000fd5b8260e08301529998505050505050505050565b60008219821115612d0e57612d0e612db0565b500190565b600082612d2e57634e487b7160e01b81526012600452602481fd5b500490565b6000816000190483118215151615612d4d57612d4d612db0565b500290565b600082821015612d6457612d64612db0565b500390565b60005b83811015612d84578181015183820152602001612d6c565b83811115611edb5750506000910152565b6000600019821415612da957612da9612db0565b5060010190565b634e487b7160e01b600052601160045260246000fd5b634e487b7160e01b600052604160045260246000fdfea26469706673582212207b33707023250b30588c7cf704a8856fc8f3b62e8325c8dd6c5c7736a8b3406b64736f6c63430008000033",
  "linkReferences": {},
  "deployedLinkReferences": {}
}