{
  "_format": "hh-sol-artifact-1",
  "contractName": "TokenisedVesting",
  "sourceName": "contracts/TokenisedVesting.sol",
  "abi": [
    {
      "inputs": [
        {
          "internalType": "bytes32",
          "name": "_merkleRoot",
          "type": "bytes32"
        },
        {
          "internalType": "uint256",
          "name": "_totalVestingDuration",
          "type": "uint256"
        },
        {
          "internalType": "address",
          "name": "_rewardToken",
          "type": "address"
        }
      ],
      "stateMutability": "nonpayable",
      "type": "constructor"
    },
    {
      "anonymous": false,
      "inputs": [
        {
          "indexed": true,
          "internalType": "address",
          "name": "owner",
          "type": "address"
        },
        {
          "indexed": true,
          "internalType": "address",
          "name": "approved",
          "type": "address"
        },
        {
          "indexed": true,
          "internalType": "uint256",
          "name": "tokenId",
          "type": "uint256"
        }
      ],
      "name": "Approval",
      "type": "event"
    },
    {
      "anonymous": false,
      "inputs": [
        {
          "indexed": true,
          "internalType": "address",
          "name": "owner",
          "type": "address"
        },
        {
          "indexed": true,
          "internalType": "address",
          "name": "operator",
          "type": "address"
        },
        {
          "indexed": false,
          "internalType": "bool",
          "name": "approved",
          "type": "bool"
        }
      ],
      "name": "ApprovalForAll",
      "type": "event"
    },
    {
      "anonymous": false,
      "inputs": [
        {
          "indexed": false,
          "internalType": "uint256",
          "name": "index",
          "type": "uint256"
        },
        {
          "indexed": false,
          "internalType": "address",
          "name": "account",
          "type": "address"
        },
        {
          "indexed": false,
          "internalType": "uint256",
          "name": "amount",
          "type": "uint256"
        }
      ],
      "name": "Claimed",
      "type": "event"
    },
    {
      "anonymous": false,
      "inputs": [
        {
          "indexed": true,
          "internalType": "address",
          "name": "from",
          "type": "address"
        },
        {
          "indexed": true,
          "internalType": "address",
          "name": "to",
          "type": "address"
        },
        {
          "indexed": true,
          "internalType": "uint256",
          "name": "tokenId",
          "type": "uint256"
        }
      ],
      "name": "Transfer",
      "type": "event"
    },
    {
      "inputs": [],
      "name": "TOTAL_VESTING_DURATION",
      "outputs": [
        {
          "internalType": "uint256",
          "name": "",
          "type": "uint256"
        }
      ],
      "stateMutability": "view",
      "type": "function"
    },
    {
      "inputs": [],
      "name": "VESTING_END_TIME",
      "outputs": [
        {
          "internalType": "uint256",
          "name": "",
          "type": "uint256"
        }
      ],
      "stateMutability": "view",
      "type": "function"
    },
    {
      "inputs": [
        {
          "internalType": "address",
          "name": "to",
          "type": "address"
        },
        {
          "internalType": "uint256",
          "name": "tokenId",
          "type": "uint256"
        }
      ],
      "name": "approve",
      "outputs": [],
      "stateMutability": "nonpayable",
      "type": "function"
    },
    {
      "inputs": [
        {
          "internalType": "address",
          "name": "owner",
          "type": "address"
        }
      ],
      "name": "balanceOf",
      "outputs": [
        {
          "internalType": "uint256",
          "name": "",
          "type": "uint256"
        }
      ],
      "stateMutability": "view",
      "type": "function"
    },
    {
      "inputs": [
        {
          "internalType": "address",
          "name": "account",
          "type": "address"
        },
        {
          "internalType": "uint256",
          "name": "index",
          "type": "uint256"
        },
        {
          "internalType": "uint256",
          "name": "share",
          "type": "uint256"
        },
        {
          "internalType": "bytes32[]",
          "name": "merkleProof",
          "type": "bytes32[]"
        }
      ],
      "name": "claim",
      "outputs": [],
      "stateMutability": "nonpayable",
      "type": "function"
    },
    {
      "inputs": [
        {
          "internalType": "uint256",
          "name": "tokenId",
          "type": "uint256"
        }
      ],
      "name": "getApproved",
      "outputs": [
        {
          "internalType": "address",
          "name": "",
          "type": "address"
        }
      ],
      "stateMutability": "view",
      "type": "function"
    },
    {
      "inputs": [
        {
          "internalType": "uint256",
          "name": "index",
          "type": "uint256"
        }
      ],
      "name": "getClaimableAmount",
      "outputs": [
        {
          "internalType": "uint256",
          "name": "",
          "type": "uint256"
        }
      ],
      "stateMutability": "view",
      "type": "function"
    },
    {
      "inputs": [
        {
          "internalType": "address",
          "name": "owner",
          "type": "address"
        },
        {
          "internalType": "address",
          "name": "operator",
          "type": "address"
        }
      ],
      "name": "isApprovedForAll",
      "outputs": [
        {
          "internalType": "bool",
          "name": "",
          "type": "bool"
        }
      ],
      "stateMutability": "view",
      "type": "function"
    },
    {
      "inputs": [],
      "name": "merkleRoot",
      "outputs": [
        {
          "internalType": "bytes32",
          "name": "",
          "type": "bytes32"
        }
      ],
      "stateMutability": "view",
      "type": "function"
    },
    {
      "inputs": [],
      "name": "name",
      "outputs": [
        {
          "internalType": "string",
          "name": "",
          "type": "string"
        }
      ],
      "stateMutability": "view",
      "type": "function"
    },
    {
      "inputs": [
        {
          "internalType": "uint256",
          "name": "tokenId",
          "type": "uint256"
        }
      ],
      "name": "ownerOf",
      "outputs": [
        {
          "internalType": "address",
          "name": "",
          "type": "address"
        }
      ],
      "stateMutability": "view",
      "type": "function"
    },
    {
      "inputs": [],
      "name": "rewardToken",
      "outputs": [
        {
          "internalType": "address",
          "name": "",
          "type": "address"
        }
      ],
      "stateMutability": "view",
      "type": "function"
    },
    {
      "inputs": [
        {
          "internalType": "address",
          "name": "from",
          "type": "address"
        },
        {
          "internalType": "address",
          "name": "to",
          "type": "address"
        },
        {
          "internalType": "uint256",
          "name": "tokenId",
          "type": "uint256"
        }
      ],
      "name": "safeTransferFrom",
      "outputs": [],
      "stateMutability": "nonpayable",
      "type": "function"
    },
    {
      "inputs": [
        {
          "internalType": "address",
          "name": "from",
          "type": "address"
        },
        {
          "internalType": "address",
          "name": "to",
          "type": "address"
        },
        {
          "internalType": "uint256",
          "name": "tokenId",
          "type": "uint256"
        },
        {
          "internalType": "bytes",
          "name": "_data",
          "type": "bytes"
        }
      ],
      "name": "safeTransferFrom",
      "outputs": [],
      "stateMutability": "nonpayable",
      "type": "function"
    },
    {
      "inputs": [
        {
          "internalType": "address",
          "name": "operator",
          "type": "address"
        },
        {
          "internalType": "bool",
          "name": "approved",
          "type": "bool"
        }
      ],
      "name": "setApprovalForAll",
      "outputs": [],
      "stateMutability": "nonpayable",
      "type": "function"
    },
    {
      "inputs": [
        {
          "internalType": "bytes4",
          "name": "interfaceId",
          "type": "bytes4"
        }
      ],
      "name": "supportsInterface",
      "outputs": [
        {
          "internalType": "bool",
          "name": "",
          "type": "bool"
        }
      ],
      "stateMutability": "view",
      "type": "function"
    },
    {
      "inputs": [],
      "name": "symbol",
      "outputs": [
        {
          "internalType": "string",
          "name": "",
          "type": "string"
        }
      ],
      "stateMutability": "view",
      "type": "function"
    },
    {
      "inputs": [
        {
          "internalType": "uint256",
          "name": "index",
          "type": "uint256"
        }
      ],
      "name": "test",
      "outputs": [
        {
          "internalType": "uint256",
          "name": "",
          "type": "uint256"
        },
        {
          "internalType": "uint256",
          "name": "",
          "type": "uint256"
        },
        {
          "internalType": "uint256",
          "name": "",
          "type": "uint256"
        }
      ],
      "stateMutability": "view",
      "type": "function"
    },
    {
      "inputs": [
        {
          "internalType": "uint256",
          "name": "",
          "type": "uint256"
        }
      ],
      "name": "tokenDetails",
      "outputs": [
        {
          "internalType": "uint256",
          "name": "share",
          "type": "uint256"
        },
        {
          "internalType": "uint256",
          "name": "lastClaimedAt",
          "type": "uint256"
        }
      ],
      "stateMutability": "view",
      "type": "function"
    },
    {
      "inputs": [
        {
          "internalType": "uint256",
          "name": "tokenId",
          "type": "uint256"
        }
      ],
      "name": "tokenURI",
      "outputs": [
        {
          "internalType": "string",
          "name": "",
          "type": "string"
        }
      ],
      "stateMutability": "view",
      "type": "function"
    },
    {
      "inputs": [
        {
          "internalType": "address",
          "name": "from",
          "type": "address"
        },
        {
          "internalType": "address",
          "name": "to",
          "type": "address"
        },
        {
          "internalType": "uint256",
          "name": "tokenId",
          "type": "uint256"
        }
      ],
      "name": "transferFrom",
      "outputs": [],
      "stateMutability": "nonpayable",
      "type": "function"
    }
  ],
  "bytecode": "0x6101006040523480156200001257600080fd5b5060405162001ea538038062001ea583398101604081905262000035916200018b565b604080518082018252601381527f54414f546f6b656e6973656456657374696e6700000000000000000000000000602080830191825283518085019094526008845267151053d5159154d560c21b9084015281519192916200009a91600091620000e5565b508051620000b0906001906020840190620000e5565b505050608083905260a0829052620000c98242620001d1565b60c05260601b6001600160601b03191660e05250620002339050565b828054620000f390620001f6565b90600052602060002090601f01602090048101928262000117576000855562000162565b82601f106200013257805160ff191683800117855562000162565b8280016001018555821562000162579182015b828111156200016257825182559160200191906001019062000145565b506200017092915062000174565b5090565b5b8082111562000170576000815560010162000175565b600080600060608486031215620001a0578283fd5b83516020850151604086015191945092506001600160a01b0381168114620001c6578182fd5b809150509250925092565b60008219821115620001f157634e487b7160e01b81526011600452602481fd5b500190565b6002810460018216806200020b57607f821691505b602082108114156200022d57634e487b7160e01b600052602260045260246000fd5b50919050565b60805160a05160c05160e05160601c611c04620002a16000396000818161096b0152610b740152600081816106470152818161070d015261083301526000818161053101528181610681015281816106e7015261091901526000818161058d0152610abf0152611c046000f3fe608060405234801561001057600080fd5b50600436106101375760003560e01c806370a08231116100b8578063b88d4fde1161007c578063b88d4fde1461027b578063c87b56dd1461028e578063d4ce2b75146102a1578063e985e9c5146102a9578063f7c618c1146102bc578063fc314e31146102c457610137565b806370a08231146102325780637d8ca2421461024557806395d89b4114610258578063a22cb46514610260578063ae1a43a51461027357610137565b806323b872dd116100ff57806323b872dd146101c257806329e99f07146101d55780632eb4a7ab146101f757806342842e0e1461020c5780636352211e1461021f57610137565b806301ffc9a71461013c57806306fdde0314610165578063081812fc1461017a578063095ea7b31461019a578063172bd6de146101af575b600080fd5b61014f61014a3660046114b3565b6102e5565b60405161015c91906115fe565b60405180910390f35b61016d61032d565b60405161015c9190611612565b61018d6101883660046114eb565b6103bf565b60405161015c9190611594565b6101ad6101a83660046113dd565b61040b565b005b6101ad6101bd366004611406565b6104a3565b6101ad6101d03660046112a0565b6104c1565b6101e86101e33660046114eb565b6104f9565b60405161015c93929190611a57565b6101ff61058b565b60405161015c9190611609565b6101ad61021a3660046112a0565b6105af565b61018d61022d3660046114eb565b6105ca565b6101ff610240366004611254565b6105ff565b6101ff6102533660046114eb565b610643565b61016d610754565b6101ad61026e3660046113a7565b610763565b6101ff610831565b6101ad6102893660046112db565b610855565b61016d61029c3660046114eb565b610894565b6101ff610917565b61014f6102b736600461126e565b61093b565b61018d610969565b6102d76102d23660046114eb565b61098d565b60405161015c92919061152f565b60006001600160e01b031982166380ac58cd60e01b148061031657506001600160e01b03198216635b5e139f60e01b145b806103255750610325826109a6565b90505b919050565b60606000805461033c90611afb565b80601f016020809104026020016040519081016040528092919081815260200182805461036890611afb565b80156103b55780601f1061038a576101008083540402835291602001916103b5565b820191906000526020600020905b81548152906001019060200180831161039857829003601f168201915b5050505050905090565b60006103ca826109bf565b6103ef5760405162461bcd60e51b81526004016103e69061189a565b60405180910390fd5b506000908152600460205260409020546001600160a01b031690565b6000610416826105ca565b9050806001600160a01b0316836001600160a01b0316141561044a5760405162461bcd60e51b81526004016103e69061197e565b806001600160a01b031661045c6109dc565b6001600160a01b031614806104785750610478816102b76109dc565b6104945760405162461bcd60e51b81526004016103e690611775565b61049e83836109e0565b505050565b6104b08585858585610a4e565b6104b984610b48565b505050505050565b6104d26104cc6109dc565b82610c5b565b6104ee5760405162461bcd60e51b81526004016103e6906119bf565b61049e838383610ce0565b600081815260066020526040812080546001909101548291829161051d9042611ab8565b6000868152600660205260409020600101547f00000000000000000000000000000000000000000000000000000000000000009061055b9042611ab8565b6000888152600660205260409020546105749190611a99565b61057e9190611a85565b9250925092509193909250565b7f000000000000000000000000000000000000000000000000000000000000000081565b61049e83838360405180602001604052806000815250610855565b6000818152600260205260408120546001600160a01b0316806103255760405162461bcd60e51b81526004016103e69061181c565b60006001600160a01b0382166106275760405162461bcd60e51b81526004016103e6906117d2565b506001600160a01b031660009081526003602052604090205490565b60007f00000000000000000000000000000000000000000000000000000000000000004210156106d3576000828152600660205260409020600101547f0000000000000000000000000000000000000000000000000000000000000000906106ab9042611ab8565b6000848152600660205260409020546106c49190611a99565b6106ce9190611a85565b610325565b6000828152600660205260409020600101547f000000000000000000000000000000000000000000000000000000000000000090610731907f0000000000000000000000000000000000000000000000000000000000000000611ab8565b60008481526006602052604090205461074a9190611a99565b6103259190611a85565b60606001805461033c90611afb565b61076b6109dc565b6001600160a01b0316826001600160a01b0316141561079c5760405162461bcd60e51b81526004016103e6906116f2565b80600560006107a96109dc565b6001600160a01b03908116825260208083019390935260409182016000908120918716808252919093529120805460ff1916921515929092179091556107ed6109dc565b6001600160a01b03167f17307eab39ab6107e8899845ad3d59bd9653f200f220920489ca2b5937696c318360405161082591906115fe565b60405180910390a35050565b7f000000000000000000000000000000000000000000000000000000000000000081565b6108666108606109dc565b83610c5b565b6108825760405162461bcd60e51b81526004016103e6906119bf565b61088e84848484610cf5565b50505050565b606061089f826109bf565b6108bb5760405162461bcd60e51b81526004016103e69061192f565b60006108c5610d28565b905060008151116108e55760405180602001604052806000815250610910565b806108ef84610d3a565b60405160200161090092919061153d565b6040516020818303038152906040525b9392505050565b7f000000000000000000000000000000000000000000000000000000000000000081565b6001600160a01b03918216600090815260056020908152604080832093909416825291909152205460ff1690565b7f000000000000000000000000000000000000000000000000000000000000000081565b6006602052600090815260409020805460019091015482565b6001600160e01b031981166301ffc9a760e01b14919050565b6000908152600260205260409020546001600160a01b0316151590565b3390565b600081815260046020526040902080546001600160a01b0319166001600160a01b0384169081179091558190610a15826105ca565b6001600160a01b03167f8c5be1e5ebec7d5bd14f71427d1e84f3dd0314c0f7b2291e5b200ac8c7c3b92560405160405180910390a45050565b610a57846109bf565b610b41576000848685604051602001610a729392919061156c565b604051602081830303815290604052805190602001209050610aea8383808060200260200160405190810160405280939291908181526020018383602002808284376000920191909152507f00000000000000000000000000000000000000000000000000000000000000009250859150610e559050565b610b065760405162461bcd60e51b81526004016103e690611a10565b610b108686610f10565b5060408051808201825284815242602080830191825260008881526006909152929092209051815590516001909101555b5050505050565b6000610b5382610643565b60008381526006602052604090204260019091015590506001600160a01b037f00000000000000000000000000000000000000000000000000000000000000001663a9059cbb610ba2846105ca565b836040518363ffffffff1660e01b8152600401610bc09291906115e5565b602060405180830381600087803b158015610bda57600080fd5b505af1158015610bee573d6000803e3d6000fd5b505050506040513d601f19601f82011682018060405250810190610c129190611497565b507f4ec90e965519d92681267467f775ada5bd214aa92c0dc93d90a5e880ce9ed02682610c3e846105ca565b83604051610c4e93929190611a38565b60405180910390a1919050565b6000610c66826109bf565b610c825760405162461bcd60e51b81526004016103e690611729565b6000610c8d836105ca565b9050806001600160a01b0316846001600160a01b03161480610cc85750836001600160a01b0316610cbd846103bf565b6001600160a01b0316145b80610cd85750610cd8818561093b565b949350505050565b610ce981610b48565b5061049e838383610fef565b610d00848484610ce0565b610d0c8484848461111c565b61088e5760405162461bcd60e51b81526004016103e690611625565b60408051602081019091526000815290565b606081610d5f57506040805180820190915260018152600360fc1b6020820152610328565b8160005b8115610d895780610d7381611b36565b9150610d829050600a83611a85565b9150610d63565b60008167ffffffffffffffff811115610db257634e487b7160e01b600052604160045260246000fd5b6040519080825280601f01601f191660200182016040528015610ddc576020820181803683370190505b5090505b8415610cd857610df1600183611ab8565b9150610dfe600a86611b51565b610e09906030611a6d565b60f81b818381518110610e2c57634e487b7160e01b600052603260045260246000fd5b60200101906001600160f81b031916908160001a905350610e4e600a86611a85565b9450610de0565b600081815b8551811015610f05576000868281518110610e8557634e487b7160e01b600052603260045260246000fd5b60200260200101519050808311610ec6578281604051602001610ea992919061152f565b604051602081830303815290604052805190602001209250610ef2565b8083604051602001610ed992919061152f565b6040516020818303038152906040528051906020012092505b5080610efd81611b36565b915050610e5a565b509092149392505050565b6001600160a01b038216610f365760405162461bcd60e51b81526004016103e690611865565b610f3f816109bf565b15610f5c5760405162461bcd60e51b81526004016103e690611677565b610f686000838361049e565b6001600160a01b0382166000908152600360205260408120805460019290610f91908490611a6d565b909155505060008181526002602052604080822080546001600160a01b0319166001600160a01b03861690811790915590518392907fddf252ad1be2c89b69c2b068fc378daa952ba7f163c4a11628f55a4df523b3ef908290a45050565b826001600160a01b0316611002826105ca565b6001600160a01b0316146110285760405162461bcd60e51b81526004016103e6906118e6565b6001600160a01b03821661104e5760405162461bcd60e51b81526004016103e6906116ae565b61105983838361049e565b6110646000826109e0565b6001600160a01b038316600090815260036020526040812080546001929061108d908490611ab8565b90915550506001600160a01b03821660009081526003602052604081208054600192906110bb908490611a6d565b909155505060008181526002602052604080822080546001600160a01b0319166001600160a01b0386811691821790925591518493918716917fddf252ad1be2c89b69c2b068fc378daa952ba7f163c4a11628f55a4df523b3ef91a4505050565b6000611130846001600160a01b0316611237565b1561122c57836001600160a01b031663150b7a0261114c6109dc565b8786866040518563ffffffff1660e01b815260040161116e94939291906115a8565b602060405180830381600087803b15801561118857600080fd5b505af19250505080156111b8575060408051601f3d908101601f191682019092526111b5918101906114cf565b60015b611212573d8080156111e6576040519150601f19603f3d011682016040523d82523d6000602084013e6111eb565b606091505b50805161120a5760405162461bcd60e51b81526004016103e690611625565b805181602001fd5b6001600160e01b031916630a85bd0160e11b149050610cd8565b506001949350505050565b3b151590565b80356001600160a01b038116811461032857600080fd5b600060208284031215611265578081fd5b6109108261123d565b60008060408385031215611280578081fd5b6112898361123d565b91506112976020840161123d565b90509250929050565b6000806000606084860312156112b4578081fd5b6112bd8461123d565b92506112cb6020850161123d565b9150604084013590509250925092565b600080600080608085870312156112f0578081fd5b6112f98561123d565b9350602061130881870161123d565b935060408601359250606086013567ffffffffffffffff8082111561132b578384fd5b818801915088601f83011261133e578384fd5b81358181111561135057611350611b91565b604051601f8201601f191681018501838111828210171561137357611373611b91565b60405281815283820185018b1015611389578586fd5b81858501868301379081019093019390935250939692955090935050565b600080604083850312156113b9578182fd5b6113c28361123d565b915060208301356113d281611ba7565b809150509250929050565b600080604083850312156113ef578182fd5b6113f88361123d565b946020939093013593505050565b60008060008060006080868803121561141d578081fd5b6114268661123d565b94506020860135935060408601359250606086013567ffffffffffffffff80821115611450578283fd5b818801915088601f830112611463578283fd5b813581811115611471578384fd5b8960208083028501011115611484578384fd5b9699959850939650602001949392505050565b6000602082840312156114a8578081fd5b815161091081611ba7565b6000602082840312156114c4578081fd5b813561091081611bb8565b6000602082840312156114e0578081fd5b815161091081611bb8565b6000602082840312156114fc578081fd5b5035919050565b6000815180845261151b816020860160208601611acf565b601f01601f19169290920160200192915050565b918252602082015260400190565b6000835161154f818460208801611acf565b835190830190611563818360208801611acf565b01949350505050565b92835260609190911b6bffffffffffffffffffffffff19166020830152603482015260540190565b6001600160a01b0391909116815260200190565b6001600160a01b03858116825284166020820152604081018390526080606082018190526000906115db90830184611503565b9695505050505050565b6001600160a01b03929092168252602082015260400190565b901515815260200190565b90815260200190565b6000602082526109106020830184611503565b60208082526032908201527f4552433732313a207472616e7366657220746f206e6f6e20455243373231526560408201527131b2b4bb32b91034b6b83632b6b2b73a32b960711b606082015260800190565b6020808252601c908201527f4552433732313a20746f6b656e20616c7265616479206d696e74656400000000604082015260600190565b60208082526024908201527f4552433732313a207472616e7366657220746f20746865207a65726f206164646040820152637265737360e01b606082015260800190565b60208082526019908201527f4552433732313a20617070726f766520746f2063616c6c657200000000000000604082015260600190565b6020808252602c908201527f4552433732313a206f70657261746f7220717565727920666f72206e6f6e657860408201526b34b9ba32b73a103a37b5b2b760a11b606082015260800190565b60208082526038908201527f4552433732313a20617070726f76652063616c6c6572206973206e6f74206f7760408201527f6e6572206e6f7220617070726f76656420666f7220616c6c0000000000000000606082015260800190565b6020808252602a908201527f4552433732313a2062616c616e636520717565727920666f7220746865207a65604082015269726f206164647265737360b01b606082015260800190565b60208082526029908201527f4552433732313a206f776e657220717565727920666f72206e6f6e657869737460408201526832b73a103a37b5b2b760b91b606082015260800190565b6020808252818101527f4552433732313a206d696e7420746f20746865207a65726f2061646472657373604082015260600190565b6020808252602c908201527f4552433732313a20617070726f76656420717565727920666f72206e6f6e657860408201526b34b9ba32b73a103a37b5b2b760a11b606082015260800190565b60208082526029908201527f4552433732313a207472616e73666572206f6620746f6b656e2074686174206960408201526839903737ba1037bbb760b91b606082015260800190565b6020808252602f908201527f4552433732314d657461646174613a2055524920717565727920666f72206e6f60408201526e3732bc34b9ba32b73a103a37b5b2b760891b606082015260800190565b60208082526021908201527f4552433732313a20617070726f76616c20746f2063757272656e74206f776e656040820152603960f91b606082015260800190565b60208082526031908201527f4552433732313a207472616e736665722063616c6c6572206973206e6f74206f6040820152701ddb995c881b9bdc88185c1c1c9bdd9959607a1b606082015260800190565b6020808252600e908201526d24b73b30b634b210383937b7b31760911b604082015260600190565b9283526001600160a01b03919091166020830152604082015260600190565b9283526020830191909152604082015260600190565b60008219821115611a8057611a80611b65565b500190565b600082611a9457611a94611b7b565b500490565b6000816000190483118215151615611ab357611ab3611b65565b500290565b600082821015611aca57611aca611b65565b500390565b60005b83811015611aea578181015183820152602001611ad2565b8381111561088e5750506000910152565b600281046001821680611b0f57607f821691505b60208210811415611b3057634e487b7160e01b600052602260045260246000fd5b50919050565b6000600019821415611b4a57611b4a611b65565b5060010190565b600082611b6057611b60611b7b565b500690565b634e487b7160e01b600052601160045260246000fd5b634e487b7160e01b600052601260045260246000fd5b634e487b7160e01b600052604160045260246000fd5b8015158114611bb557600080fd5b50565b6001600160e01b031981168114611bb557600080fdfea2646970667358221220cc0d7d13a7178d2f63aa877ae7cc5ae8e3a61ce5fd89f1a34458bb9e4a441eed64736f6c63430008000033",
  "linkReferences": {},
  "deployedLinkReferences": {}
}